{
  "contractName": "myAMI",
  "abi": [
    {
      "inputs": [],
      "payable": false,
      "stateMutability": "nonpayable",
      "type": "constructor"
    },
    {
      "anonymous": false,
      "inputs": [
        {
          "indexed": false,
          "internalType": "address",
          "name": "new_s_address",
          "type": "address"
        },
        {
          "indexed": false,
          "internalType": "string",
          "name": "new_s_name",
          "type": "string"
        }
      ],
      "name": "AddSubjectEvent",
      "type": "event"
    },
    {
      "anonymous": false,
      "inputs": [
        {
          "indexed": false,
          "internalType": "string",
          "name": "message",
          "type": "string"
        }
      ],
      "name": "RemarksEvent",
      "type": "event"
    },
    {
      "anonymous": false,
      "inputs": [
        {
          "indexed": false,
          "internalType": "address",
          "name": "s_address",
          "type": "address"
        }
      ],
      "name": "RemoveSubjectEvent",
      "type": "event"
    },
    {
      "constant": true,
      "inputs": [],
      "name": "is_activate",
      "outputs": [
        {
          "internalType": "bool",
          "name": "",
          "type": "bool"
        }
      ],
      "payable": false,
      "stateMutability": "view",
      "type": "function"
    },
    {
      "constant": true,
      "inputs": [
        {
          "internalType": "uint256",
          "name": "",
          "type": "uint256"
        }
      ],
      "name": "o",
      "outputs": [
        {
          "internalType": "string",
          "name": "object_name",
          "type": "string"
        }
      ],
      "payable": false,
      "stateMutability": "view",
      "type": "function"
    },
    {
      "constant": true,
      "inputs": [],
      "name": "owner",
      "outputs": [
        {
          "internalType": "address",
          "name": "",
          "type": "address"
        }
      ],
      "payable": false,
      "stateMutability": "view",
      "type": "function"
    },
    {
      "constant": true,
      "inputs": [
        {
          "internalType": "uint256",
          "name": "",
          "type": "uint256"
        }
      ],
      "name": "p",
      "outputs": [
        {
          "internalType": "address",
          "name": "s_address",
          "type": "address"
        },
        {
          "internalType": "string",
          "name": "object_name",
          "type": "string"
        },
        {
          "internalType": "string",
          "name": "resource_name",
          "type": "string"
        },
        {
          "internalType": "enum myAMI.Action",
          "name": "action",
          "type": "uint8"
        },
        {
          "internalType": "enum myAMI.Permission",
          "name": "permission",
          "type": "uint8"
        },
        {
          "internalType": "uint256",
          "name": "expiration_time",
          "type": "uint256"
        }
      ],
      "payable": false,
      "stateMutability": "view",
      "type": "function"
    },
    {
      "constant": true,
      "inputs": [
        {
          "internalType": "address",
          "name": "",
          "type": "address"
        }
      ],
      "name": "s",
      "outputs": [
        {
          "internalType": "string",
          "name": "name",
          "type": "string"
        },
        {
          "internalType": "address",
          "name": "s_address",
          "type": "address"
        }
      ],
      "payable": false,
      "stateMutability": "view",
      "type": "function"
    },
    {
      "constant": false,
      "inputs": [
        {
          "internalType": "address",
          "name": "new_s_address",
          "type": "address"
        },
        {
          "internalType": "string",
          "name": "new_s_name",
          "type": "string"
        }
      ],
      "name": "AddSubject",
      "outputs": [],
      "payable": false,
      "stateMutability": "nonpayable",
      "type": "function"
    },
    {
      "constant": false,
      "inputs": [
        {
          "internalType": "address",
          "name": "s_address",
          "type": "address"
        }
      ],
      "name": "RemoveSubject",
      "outputs": [],
      "payable": false,
      "stateMutability": "nonpayable",
      "type": "function"
    },
    {
      "constant": false,
      "inputs": [
        {
          "internalType": "bool",
          "name": "status",
          "type": "bool"
        }
      ],
      "name": "ChangeStatus",
      "outputs": [],
      "payable": false,
      "stateMutability": "nonpayable",
      "type": "function"
    },
    {
      "constant": false,
      "inputs": [
        {
          "internalType": "address",
          "name": "s_address",
          "type": "address"
        },
        {
          "internalType": "uint256[2]",
          "name": "r",
          "type": "uint256[2]"
        },
        {
          "internalType": "enum myAMI.Action",
          "name": "action",
          "type": "uint8"
        },
        {
          "internalType": "enum myAMI.Permission",
          "name": "permission",
          "type": "uint8"
        },
        {
          "internalType": "uint256",
          "name": "expiration_time",
          "type": "uint256"
        }
      ],
      "name": "AddPolicy",
      "outputs": [],
      "payable": false,
      "stateMutability": "nonpayable",
      "type": "function"
    },
    {
      "constant": false,
      "inputs": [
        {
          "internalType": "address",
          "name": "s_address",
          "type": "address"
        },
        {
          "internalType": "uint256[2]",
          "name": "r",
          "type": "uint256[2]"
        },
        {
          "internalType": "enum myAMI.Action",
          "name": "action",
          "type": "uint8"
        },
        {
          "internalType": "enum myAMI.Permission",
          "name": "permission",
          "type": "uint8"
        },
        {
          "internalType": "uint256",
          "name": "expiration_time",
          "type": "uint256"
        }
      ],
      "name": "UpdatePolicy",
      "outputs": [],
      "payable": false,
      "stateMutability": "nonpayable",
      "type": "function"
    },
    {
      "constant": false,
      "inputs": [
        {
          "internalType": "address",
          "name": "s_address",
          "type": "address"
        },
        {
          "internalType": "uint256[2]",
          "name": "r",
          "type": "uint256[2]"
        },
        {
          "internalType": "enum myAMI.Action",
          "name": "action",
          "type": "uint8"
        },
        {
          "internalType": "enum myAMI.Permission",
          "name": "permission",
          "type": "uint8"
        },
        {
          "internalType": "uint256",
          "name": "expiration_time",
          "type": "uint256"
        }
      ],
      "name": "DeletePolicy",
      "outputs": [],
      "payable": false,
      "stateMutability": "nonpayable",
      "type": "function"
    },
    {
      "constant": false,
      "inputs": [
        {
          "internalType": "address",
          "name": "s_address",
          "type": "address"
        },
        {
          "internalType": "uint256[2]",
          "name": "r",
          "type": "uint256[2]"
        },
        {
          "internalType": "enum myAMI.Action",
          "name": "action",
          "type": "uint8"
        },
        {
          "internalType": "enum myAMI.Permission",
          "name": "permission",
          "type": "uint8"
        },
        {
          "internalType": "uint256",
          "name": "expiration_time",
          "type": "uint256"
        }
      ],
      "name": "CheckAccess",
      "outputs": [
        {
          "internalType": "bool",
          "name": "",
          "type": "bool"
        }
      ],
      "payable": false,
      "stateMutability": "nonpayable",
      "type": "function"
    },
    {
      "constant": true,
      "inputs": [],
      "name": "return_contract_name",
      "outputs": [
        {
          "internalType": "string",
          "name": "",
          "type": "string"
        }
      ],
      "payable": false,
      "stateMutability": "pure",
      "type": "function"
    }
  ],
  "bytecode": "0x60806040523480156200001157600080fd5b5060018060006101000a81548160ff021916908315150217905550336001806101000a81548173ffffffffffffffffffffffffffffffffffffffff021916908373ffffffffffffffffffffffffffffffffffffffff1602179055506040518060400160405280601181526020017f436f6e7472616374204372656174696f6e00000000000000000000000000000081525060009080519060200190620000b9929190620006b0565b507f2ba097eeef29f72826fd80f541e92ea802b0e78b7d9558569fc51a8e6ead5f386000604051620000ec9190620009ea565b60405180910390a16200015c6001809054906101000a900473ffffffffffffffffffffffffffffffffffffffff166040518060400160405280600581526020017f6f776e65720000000000000000000000000000000000000000000000000000008152506200017260201b60201c565b6200016c620003cf60201b60201c565b62000b29565b6001809054906101000a900473ffffffffffffffffffffffffffffffffffffffff1673ffffffffffffffffffffffffffffffffffffffff163373ffffffffffffffffffffffffffffffffffffffff161462000204576040517f08c379a0000000000000000000000000000000000000000000000000000000008152600401620001fb9062000a0e565b60405180910390fd5b60405162000212906200099f565b6040518091039020600360008473ffffffffffffffffffffffffffffffffffffffff1673ffffffffffffffffffffffffffffffffffffffff1681526020019081526020016000206000016040516200026b919062000986565b604051809103902014620002b6576040517f08c379a0000000000000000000000000000000000000000000000000000000008152600401620002ad9062000a30565b60405180910390fd5b80600360008473ffffffffffffffffffffffffffffffffffffffff1673ffffffffffffffffffffffffffffffffffffffff16815260200190815260200160002060000190805190602001906200030e929190620006b0565b5081600360008473ffffffffffffffffffffffffffffffffffffffff1673ffffffffffffffffffffffffffffffffffffffff16815260200190815260200160002060010160006101000a81548173ffffffffffffffffffffffffffffffffffffffff021916908373ffffffffffffffffffffffffffffffffffffffff1602179055507f40d0e0f4b8d604aeed5cc3e4bbc3a400fc26348172ce41b7d2b82b5a4fc0228e8282604051620003c3929190620009b6565b60405180910390a15050565b6040518060400160405280600581526020017f4f626a5f3000000000000000000000000000000000000000000000000000000081525060026000808152602001908152602001600020600001908051906020019062000430929190620006b0565b50600260008081526020019081526020016000206001018060018154018082558091505090600182039060005260206000200160006040518060400160405280600681526020017f5265635f3030000000000000000000000000000000000000000000000000000081525090919091509080519060200190620004b5929190620006b0565b5050600260008081526020019081526020016000206001018060018154018082558091505090600182039060005260206000200160006040518060400160405280600681526020017f5265635f30310000000000000000000000000000000000000000000000000000815250909190915090805190602001906200053b929190620006b0565b50506040518060400160405280600581526020017f4f626a5f31000000000000000000000000000000000000000000000000000000815250600260006001815260200190815260200160002060000190805190602001906200059f929190620006b0565b5060026000600181526020019081526020016000206001018060018154018082558091505090600182039060005260206000200160006040518060400160405280600681526020017f5265635f313000000000000000000000000000000000000000000000000000008152509091909150908051906020019062000625929190620006b0565b505060026000600181526020019081526020016000206001018060018154018082558091505090600182039060005260206000200160006040518060400160405280600681526020017f5265635f3131000000000000000000000000000000000000000000000000000081525090919091509080519060200190620006ac929190620006b0565b5050565b828054600181600116156101000203166002900490600052602060002090601f016020900481019282601f10620006f357805160ff191683800117855562000724565b8280016001018555821562000724579182015b828111156200072357825182559160200191906001019062000706565b5b50905062000733919062000737565b5090565b6200075c91905b80821115620007585760008160009055506001016200073e565b5090565b90565b6200076a8162000aae565b82525050565b600081546001811660008114620007905760018114620007b85762000802565b607f6002830416620007a3818762000a87565b955060ff198316865280860193505062000802565b60028204620007c8818762000a87565b9550620007d58562000a52565b60005b82811015620007f957815481890152600182019150602081019050620007d8565b82880195505050505b505092915050565b6000620008178262000a7c565b62000823818562000a92565b93506200083581856020860162000ae2565b620008408162000b18565b840191505092915050565b6000815460018116600081146200086b57600181146200089457620008de565b607f60028304166200087e818762000a92565b955060ff198316865260208601935050620008de565b60028204620008a4818762000a92565b9550620008b18562000a67565b60005b82811015620008d557815481890152600182019150602081019050620008b4565b80880195505050505b505092915050565b6000620008f560208362000a92565b91507f4f6e6c79206f776e65722063616e20616464206e6577205375626a65637473216000830152602082019050919050565b60006200093760168362000a92565b91507f5375626a65637420616c726561647920657869737421000000000000000000006000830152602082019050919050565b60006200097960008362000aa3565b9150600082019050919050565b600062000994828462000770565b915081905092915050565b6000620009ac826200096a565b9150819050919050565b6000604082019050620009cd60008301856200075f565b8181036020830152620009e181846200080a565b90509392505050565b6000602082019050818103600083015262000a0681846200084b565b905092915050565b6000602082019050818103600083015262000a2981620008e6565b9050919050565b6000602082019050818103600083015262000a4b8162000928565b9050919050565b60008190508160005260206000209050919050565b60008190508160005260206000209050919050565b600081519050919050565b600081905092915050565b600082825260208201905092915050565b600081905092915050565b600062000abb8262000ac2565b9050919050565b600073ffffffffffffffffffffffffffffffffffffffff82169050919050565b60005b8381101562000b0257808201518184015260208101905062000ae5565b8381111562000b12576000848401525b50505050565b6000601f19601f8301169050919050565b612ad38062000b396000396000f3fe608060405234801561001057600080fd5b50600436106100cf5760003560e01c8063a96920471161008c578063df895d3911610066578063df895d3914610217578063e026c4af14610233578063e1e5c6f514610264578063ea688b4214610280576100cf565b8063a969204714610194578063ae04cf7d146101c9578063cd9f9ba8146101f9576100cf565b8063189f4c96146100d45780633a16ea8b146100f25780633c8ee1661461010e5780634b82dd4d1461012a5780637bb24a0c1461015a5780638da5cb5b14610176575b600080fd5b6100dc61029c565b6040516100e99190612659565b60405180910390f35b61010c60048036036101079190810190611fe2565b6102af565b005b61012860048036036101239190810190611fe2565b61069f565b005b610144600480360361013f9190810190611fe2565b610b37565b6040516101519190612659565b60405180910390f35b610174600480360361016f9190810190611fb9565b610fe9565b005b61017e6111d7565b60405161018b919061259f565b60405180910390f35b6101ae60048036036101a991908101906120d6565b6111fc565b6040516101c0969594939291906125ea565b60405180910390f35b6101e360048036036101de91908101906120d6565b6113af565b6040516101f09190612674565b60405180910390f35b610201611465565b60405161020e9190612696565b60405180910390f35b610231600480360361022c9190810190611fe2565b6114a2565b005b61024d60048036036102489190810190611fb9565b611944565b60405161025b9291906126b8565b60405180910390f35b61027e600480360361027991908101906120ad565b611a20565b005b61029a60048036036102959190810190612059565b611acc565b005b600160009054906101000a900460ff1681565b6001809054906101000a900473ffffffffffffffffffffffffffffffffffffffff1673ffffffffffffffffffffffffffffffffffffffff163373ffffffffffffffffffffffffffffffffffffffff161461033e576040517f08c379a00000000000000000000000000000000000000000000000000000000081526004016103359061274a565b60405180910390fd5b60011515600160009054906101000a900460ff16151514610394576040517f08c379a000000000000000000000000000000000000000000000000000000000815260040161038b906127ca565b60405180910390fd5b6040516103a09061258a565b6040518091039020600360008773ffffffffffffffffffffffffffffffffffffffff1673ffffffffffffffffffffffffffffffffffffffff1681526020019081526020016000206000016040516103f79190612573565b60405180910390201415610440576040517f08c379a0000000000000000000000000000000000000000000000000000000008152600401610437906127aa565b60405180910390fd5b60008090505b600480549050811015610697578573ffffffffffffffffffffffffffffffffffffffff166004828154811061047757fe5b906000526020600020906005020160000160009054906101000a900473ffffffffffffffffffffffffffffffffffffffff1673ffffffffffffffffffffffffffffffffffffffff16148015610538575060026000866000600281106104d857fe5b602002015181526020019081526020016000206000016040516104fb9190612573565b60405180910390206004828154811061051057fe5b906000526020600020906005020160010160405161052e9190612573565b6040518091039020145b80156105d65750600260008660006002811061055057fe5b602002015181526020019081526020016000206001018560016002811061057357fe5b60200201518154811061058257fe5b906000526020600020016040516105999190612573565b6040518091039020600482815481106105ae57fe5b90600052602060002090600502016002016040516105cc9190612573565b6040518091039020145b801561062257508360028111156105e957fe5b600482815481106105f657fe5b906000526020600020906005020160030160009054906101000a900460ff16600281111561062057fe5b145b1561068a57826004828154811061063557fe5b906000526020600020906005020160030160016101000a81548160ff0219169083600181111561066157fe5b0217905550816004828154811061067457fe5b9060005260206000209060050201600401819055505b8080600101915050610446565b505050505050565b6001809054906101000a900473ffffffffffffffffffffffffffffffffffffffff1673ffffffffffffffffffffffffffffffffffffffff163373ffffffffffffffffffffffffffffffffffffffff161461072e576040517f08c379a00000000000000000000000000000000000000000000000000000000081526004016107259061282a565b60405180910390fd5b60011515600160009054906101000a900460ff16151514610784576040517f08c379a000000000000000000000000000000000000000000000000000000000815260040161077b906127ca565b60405180910390fd5b6040516107909061258a565b6040518091039020600360008773ffffffffffffffffffffffffffffffffffffffff1673ffffffffffffffffffffffffffffffffffffffff1681526020019081526020016000206000016040516107e79190612573565b60405180910390201415610830576040517f08c379a0000000000000000000000000000000000000000000000000000000008152600401610827906127aa565b60405180910390fd5b60008090505b600480549050811015610b2f578573ffffffffffffffffffffffffffffffffffffffff166004828154811061086757fe5b906000526020600020906005020160000160009054906101000a900473ffffffffffffffffffffffffffffffffffffffff1673ffffffffffffffffffffffffffffffffffffffff16148015610928575060026000866000600281106108c857fe5b602002015181526020019081526020016000206000016040516108eb9190612573565b60405180910390206004828154811061090057fe5b906000526020600020906005020160010160405161091e9190612573565b6040518091039020145b80156109c65750600260008660006002811061094057fe5b602002015181526020019081526020016000206001018560016002811061096357fe5b60200201518154811061097257fe5b906000526020600020016040516109899190612573565b60405180910390206004828154811061099e57fe5b90600052602060002090600502016002016040516109bc9190612573565b6040518091039020145b8015610a1257508360028111156109d957fe5b600482815481106109e657fe5b906000526020600020906005020160030160009054906101000a900460ff166002811115610a1057fe5b145b8015610a5e5750826001811115610a2557fe5b60048281548110610a3257fe5b906000526020600020906005020160030160019054906101000a900460ff166001811115610a5c57fe5b145b8015610a8757508160048281548110610a7357fe5b906000526020600020906005020160040154145b15610b225760048181548110610a9957fe5b9060005260206000209060050201600080820160006101000a81549073ffffffffffffffffffffffffffffffffffffffff0219169055600182016000610adf9190611d1b565b600282016000610aef9190611d1b565b6003820160006101000a81549060ff02191690556003820160016101000a81549060ff0219169055600482016000905550505b8080600101915050610836565b505050505050565b600060011515600160009054906101000a900460ff16151514610b8f576040517f08c379a0000000000000000000000000000000000000000000000000000000008152600401610b86906127ca565b60405180910390fd5b8573ffffffffffffffffffffffffffffffffffffffff16600360008873ffffffffffffffffffffffffffffffffffffffff1673ffffffffffffffffffffffffffffffffffffffff16815260200190815260200160002060010160009054906101000a900473ffffffffffffffffffffffffffffffffffffffff1673ffffffffffffffffffffffffffffffffffffffff1614610c5f576040517f08c379a0000000000000000000000000000000000000000000000000000000008152600401610c56906127aa565b60405180910390fd5b60008090505b600480549050811015610f56578673ffffffffffffffffffffffffffffffffffffffff1660048281548110610c9657fe5b906000526020600020906005020160000160009054906101000a900473ffffffffffffffffffffffffffffffffffffffff1673ffffffffffffffffffffffffffffffffffffffff16148015610d5757506002600087600060028110610cf757fe5b60200201518152602001908152602001600020600001604051610d1a9190612573565b604051809103902060048281548110610d2f57fe5b9060005260206000209060050201600101604051610d4d9190612573565b6040518091039020145b8015610df557506002600087600060028110610d6f57fe5b6020020151815260200190815260200160002060010186600160028110610d9257fe5b602002015181548110610da157fe5b90600052602060002001604051610db89190612573565b604051809103902060048281548110610dcd57fe5b9060005260206000209060050201600201604051610deb9190612573565b6040518091039020145b8015610e415750846002811115610e0857fe5b60048281548110610e1557fe5b906000526020600020906005020160030160009054906101000a900460ff166002811115610e3f57fe5b145b8015610e8d5750836001811115610e5457fe5b60048281548110610e6157fe5b906000526020600020906005020160030160019054906101000a900460ff166001811115610e8b57fe5b145b8015610eb657508260048281548110610ea257fe5b906000526020600020906005020160040154145b15610f49576040518060400160405280601481526020017f526571756573747320617265207061737365642100000000000000000000000081525060009080519060200190610f06929190611d63565b507f2ba097eeef29f72826fd80f541e92ea802b0e78b7d9558569fc51a8e6ead5f386000604051610f3791906126e8565b60405180910390a16001915050610fe0565b8080600101915050610c65565b506040518060400160405280601581526020017f52657175657374732061726520626c6f636b656421000000000000000000000081525060009080519060200190610fa2929190611d63565b507f2ba097eeef29f72826fd80f541e92ea802b0e78b7d9558569fc51a8e6ead5f386000604051610fd391906126e8565b60405180910390a1600090505b95945050505050565b6001809054906101000a900473ffffffffffffffffffffffffffffffffffffffff1673ffffffffffffffffffffffffffffffffffffffff163373ffffffffffffffffffffffffffffffffffffffff1614611078576040517f08c379a000000000000000000000000000000000000000000000000000000000815260040161106f9061270a565b60405180910390fd5b6040516110849061258a565b6040518091039020600360008373ffffffffffffffffffffffffffffffffffffffff1673ffffffffffffffffffffffffffffffffffffffff1681526020019081526020016000206000016040516110db9190612573565b60405180910390201415611124576040517f08c379a000000000000000000000000000000000000000000000000000000000815260040161111b9061280a565b60405180910390fd5b600360008273ffffffffffffffffffffffffffffffffffffffff1673ffffffffffffffffffffffffffffffffffffffff168152602001908152602001600020600080820160006111749190611d1b565b6001820160006101000a81549073ffffffffffffffffffffffffffffffffffffffff021916905550507f224d934715cc67dbf5f4c2baa6a3d33c4aa5400d37f77b50942cf6d9a28c4570816040516111cc919061259f565b60405180910390a150565b6001809054906101000a900473ffffffffffffffffffffffffffffffffffffffff1681565b6004818154811061120957fe5b90600052602060002090600502016000915090508060000160009054906101000a900473ffffffffffffffffffffffffffffffffffffffff1690806001018054600181600116156101000203166002900480601f0160208091040260200160405190810160405280929190818152602001828054600181600116156101000203166002900480156112db5780601f106112b0576101008083540402835291602001916112db565b820191906000526020600020905b8154815290600101906020018083116112be57829003601f168201915b505050505090806002018054600181600116156101000203166002900480601f0160208091040260200160405190810160405280929190818152602001828054600181600116156101000203166002900480156113795780601f1061134e57610100808354040283529160200191611379565b820191906000526020600020905b81548152906001019060200180831161135c57829003601f168201915b5050505050908060030160009054906101000a900460ff16908060030160019054906101000a900460ff16908060040154905086565b6002602052806000526040600020600091509050806000018054600181600116156101000203166002900480601f01602080910402602001604051908101604052809291908181526020018280546001816001161561010002031660029004801561145b5780601f106114305761010080835404028352916020019161145b565b820191906000526020600020905b81548152906001019060200180831161143e57829003601f168201915b5050505050905081565b60606040518060400160405280600581526020017f6d79414d49000000000000000000000000000000000000000000000000000000815250905090565b6001809054906101000a900473ffffffffffffffffffffffffffffffffffffffff1673ffffffffffffffffffffffffffffffffffffffff163373ffffffffffffffffffffffffffffffffffffffff1614611531576040517f08c379a00000000000000000000000000000000000000000000000000000000081526004016115289061272a565b60405180910390fd5b60011515600160009054906101000a900460ff16151514611587576040517f08c379a000000000000000000000000000000000000000000000000000000000815260040161157e906127ca565b60405180910390fd5b6040516115939061258a565b6040518091039020600360008773ffffffffffffffffffffffffffffffffffffffff1673ffffffffffffffffffffffffffffffffffffffff1681526020019081526020016000206000016040516115ea9190612573565b60405180910390201415611633576040517f08c379a000000000000000000000000000000000000000000000000000000000815260040161162a906127aa565b60405180910390fd5b60046040518060c001604052808773ffffffffffffffffffffffffffffffffffffffff168152602001600260008860006002811061166d57fe5b602002015181526020019081526020016000206000018054600181600116156101000203166002900480601f0160208091040260200160405190810160405280929190818152602001828054600181600116156101000203166002900480156117175780601f106116ec57610100808354040283529160200191611717565b820191906000526020600020905b8154815290600101906020018083116116fa57829003601f168201915b50505050508152602001600260008860006002811061173257fe5b602002015181526020019081526020016000206001018760016002811061175557fe5b60200201518154811061176457fe5b906000526020600020018054600181600116156101000203166002900480601f0160208091040260200160405190810160405280929190818152602001828054600181600116156101000203166002900480156118025780601f106117d757610100808354040283529160200191611802565b820191906000526020600020905b8154815290600101906020018083116117e557829003601f168201915b5050505050815260200185600281111561181857fe5b815260200184600181111561182957fe5b8152602001838152509080600181540180825580915050906001820390600052602060002090600502016000909192909190915060008201518160000160006101000a81548173ffffffffffffffffffffffffffffffffffffffff021916908373ffffffffffffffffffffffffffffffffffffffff16021790555060208201518160010190805190602001906118c0929190611de3565b5060408201518160020190805190602001906118dd929190611de3565b5060608201518160030160006101000a81548160ff0219169083600281111561190257fe5b021790555060808201518160030160016101000a81548160ff0219169083600181111561192b57fe5b021790555060a082015181600401555050505050505050565b6003602052806000526040600020600091509050806000018054600181600116156101000203166002900480601f0160208091040260200160405190810160405280929190818152602001828054600181600116156101000203166002900480156119f05780601f106119c5576101008083540402835291602001916119f0565b820191906000526020600020905b8154815290600101906020018083116119d357829003601f168201915b5050505050908060010160009054906101000a900473ffffffffffffffffffffffffffffffffffffffff16905082565b6001809054906101000a900473ffffffffffffffffffffffffffffffffffffffff1673ffffffffffffffffffffffffffffffffffffffff163373ffffffffffffffffffffffffffffffffffffffff1614611aaf576040517f08c379a0000000000000000000000000000000000000000000000000000000008152600401611aa6906127ea565b60405180910390fd5b80600160006101000a81548160ff02191690831515021790555050565b6001809054906101000a900473ffffffffffffffffffffffffffffffffffffffff1673ffffffffffffffffffffffffffffffffffffffff163373ffffffffffffffffffffffffffffffffffffffff1614611b5b576040517f08c379a0000000000000000000000000000000000000000000000000000000008152600401611b529061276a565b60405180910390fd5b604051611b679061258a565b6040518091039020600360008473ffffffffffffffffffffffffffffffffffffffff1673ffffffffffffffffffffffffffffffffffffffff168152602001908152602001600020600001604051611bbe9190612573565b604051809103902014611c06576040517f08c379a0000000000000000000000000000000000000000000000000000000008152600401611bfd9061278a565b60405180910390fd5b80600360008473ffffffffffffffffffffffffffffffffffffffff1673ffffffffffffffffffffffffffffffffffffffff1681526020019081526020016000206000019080519060200190611c5c929190611d63565b5081600360008473ffffffffffffffffffffffffffffffffffffffff1673ffffffffffffffffffffffffffffffffffffffff16815260200190815260200160002060010160006101000a81548173ffffffffffffffffffffffffffffffffffffffff021916908373ffffffffffffffffffffffffffffffffffffffff1602179055507f40d0e0f4b8d604aeed5cc3e4bbc3a400fc26348172ce41b7d2b82b5a4fc0228e8282604051611d0f9291906125ba565b60405180910390a15050565b50805460018160011615610100020316600290046000825580601f10611d415750611d60565b601f016020900490600052602060002090810190611d5f9190611e63565b5b50565b828054600181600116156101000203166002900490600052602060002090601f016020900481019282601f10611da457805160ff1916838001178555611dd2565b82800160010185558215611dd2579182015b82811115611dd1578251825591602001919060010190611db6565b5b509050611ddf9190611e63565b5090565b828054600181600116156101000203166002900490600052602060002090601f016020900481019282601f10611e2457805160ff1916838001178555611e52565b82800160010185558215611e52579182015b82811115611e51578251825591602001919060010190611e36565b5b509050611e5f9190611e63565b5090565b611e8591905b80821115611e81576000816000905550600101611e69565b5090565b90565b600081359050611e9781612a2b565b92915050565b600082601f830112611eae57600080fd5b6002611ec1611ebc82612877565b61284a565b91508183856020840282011115611ed757600080fd5b60005b83811015611f075781611eed8882611fa4565b845260208401935060208301925050600181019050611eda565b5050505092915050565b600081359050611f2081612a42565b92915050565b600081359050611f3581612a59565b92915050565b600081359050611f4a81612a69565b92915050565b600082601f830112611f6157600080fd5b8135611f74611f6f82612899565b61284a565b91508082526020830160208301858383011115611f9057600080fd5b611f9b8382846129be565b50505092915050565b600081359050611fb381612a79565b92915050565b600060208284031215611fcb57600080fd5b6000611fd984828501611e88565b91505092915050565b600080600080600060c08688031215611ffa57600080fd5b600061200888828901611e88565b955050602061201988828901611e9d565b945050606061202a88828901611f26565b935050608061203b88828901611f3b565b92505060a061204c88828901611fa4565b9150509295509295909350565b6000806040838503121561206c57600080fd5b600061207a85828601611e88565b925050602083013567ffffffffffffffff81111561209757600080fd5b6120a385828601611f50565b9150509250929050565b6000602082840312156120bf57600080fd5b60006120cd84828501611f11565b91505092915050565b6000602082840312156120e857600080fd5b60006120f684828501611fa4565b91505092915050565b6121088161292c565b82525050565b6121178161293e565b82525050565b60008154600181166000811461213a576001811461215f576121a3565b607f600283041661214b8187612905565b955060ff19831686528086019350506121a3565b6002820461216d8187612905565b9550612178856128c5565b60005b8281101561219a5781548189015260018201915060208101905061217b565b82880195505050505b505092915050565b6121b48161299a565b82525050565b6121c3816129ac565b82525050565b60006121d4826128fa565b6121de8185612910565b93506121ee8185602086016129cd565b6121f781612a00565b840191505092915050565b600061220d826128ef565b6122178185612910565b93506122278185602086016129cd565b61223081612a00565b840191505092915050565b600081546001811660008114612258576001811461227e576122c2565b607f60028304166122698187612910565b955060ff1983168652602086019350506122c2565b6002820461228c8187612910565b9550612297856128da565b60005b828110156122b95781548189015260018201915060208101905061229a565b80880195505050505b505092915050565b60006122d7601f83612910565b91507f4f6e6c79206f776e65722063616e2072656d6f7665205375626a6563747321006000830152602082019050919050565b6000612317601c83612910565b91507f4f6e6c79206f776e65722063616e2041646420506f6c696369657321000000006000830152602082019050919050565b6000612357601f83612910565b91507f4f6e6c79206f776e65722063616e2055706461746520506f6c696369657321006000830152602082019050919050565b6000612397602083612910565b91507f4f6e6c79206f776e65722063616e20616464206e6577205375626a65637473216000830152602082019050919050565b60006123d7601683612910565b91507f5375626a65637420616c726561647920657869737421000000000000000000006000830152602082019050919050565b6000612417601a83612910565b91507f5375626a656374206e6f742061757468656e74696361746564210000000000006000830152602082019050919050565b6000612457601583612910565b91507f436f6e7472616374206e6f7420616374697661746500000000000000000000006000830152602082019050919050565b6000612497600083612921565b9150600082019050919050565b60006124b1601d83612910565b91507f4f6e6c79206f776e65722063616e204368616e676520537461747573210000006000830152602082019050919050565b60006124f1601283612910565b91507f5375626a656374206e6f742065786973742100000000000000000000000000006000830152602082019050919050565b6000612531601f83612910565b91507f4f6e6c79206f776e65722063616e2044656c65746520506f6c696369657321006000830152602082019050919050565b61256d81612990565b82525050565b600061257f828461211d565b915081905092915050565b60006125958261248a565b9150819050919050565b60006020820190506125b460008301846120ff565b92915050565b60006040820190506125cf60008301856120ff565b81810360208301526125e181846121c9565b90509392505050565b600060c0820190506125ff60008301896120ff565b81810360208301526126118188612202565b905081810360408301526126258187612202565b905061263460608301866121ab565b61264160808301856121ba565b61264e60a0830184612564565b979650505050505050565b600060208201905061266e600083018461210e565b92915050565b6000602082019050818103600083015261268e8184612202565b905092915050565b600060208201905081810360008301526126b081846121c9565b905092915050565b600060408201905081810360008301526126d28185612202565b90506126e160208301846120ff565b9392505050565b60006020820190508181036000830152612702818461223b565b905092915050565b60006020820190508181036000830152612723816122ca565b9050919050565b600060208201905081810360008301526127438161230a565b9050919050565b600060208201905081810360008301526127638161234a565b9050919050565b600060208201905081810360008301526127838161238a565b9050919050565b600060208201905081810360008301526127a3816123ca565b9050919050565b600060208201905081810360008301526127c38161240a565b9050919050565b600060208201905081810360008301526127e38161244a565b9050919050565b60006020820190508181036000830152612803816124a4565b9050919050565b60006020820190508181036000830152612823816124e4565b9050919050565b6000602082019050818103600083015261284381612524565b9050919050565b6000604051905081810181811067ffffffffffffffff8211171561286d57600080fd5b8060405250919050565b600067ffffffffffffffff82111561288e57600080fd5b602082029050919050565b600067ffffffffffffffff8211156128b057600080fd5b601f19601f8301169050602081019050919050565b60008190508160005260206000209050919050565b60008190508160005260206000209050919050565b600081519050919050565b600081519050919050565b600081905092915050565b600082825260208201905092915050565b600081905092915050565b600061293782612970565b9050919050565b60008115159050919050565b600081905061295882612a11565b919050565b600081905061296b82612a1e565b919050565b600073ffffffffffffffffffffffffffffffffffffffff82169050919050565b6000819050919050565b60006129a58261294a565b9050919050565b60006129b78261295d565b9050919050565b82818337600083830152505050565b60005b838110156129eb5780820151818401526020810190506129d0565b838111156129fa576000848401525b50505050565b6000601f19601f8301169050919050565b60038110612a1b57fe5b50565b60028110612a2857fe5b50565b612a348161292c565b8114612a3f57600080fd5b50565b612a4b8161293e565b8114612a5657600080fd5b50565b60038110612a6657600080fd5b50565b60028110612a7657600080fd5b50565b612a8281612990565b8114612a8d57600080fd5b5056fea365627a7a72315820a8b3003b129ea2c920ef4d347775c459b0f883d25da6ce99393edfc706ac65c36c6578706572696d656e74616cf564736f6c63430005100040",
  "source": "//pragma solidity >=0.4.22 <0.7.0;\r\n//pragma solidity 0.6.7;\r\npragma solidity 0.5.16;\r\npragma experimental ABIEncoderV2;\r\n/** \r\n * @title Ballot\r\n * @dev Implements voting process along with vote delegation\r\n */\r\ncontract myAMI {\r\n    string message;\r\n    bool public is_activate; // off\r\n    address public owner; // off\r\n    \r\n    /*\r\n    struct Resource {\r\n        string object_name;\r\n        string resource_name;\r\n    }\r\n    Resource[] public r; // off\r\n    */\r\n    \r\n    struct Object {\r\n        string object_name;\r\n        string[] resource_name;\r\n    }\r\n    //Object[] public o; // off\r\n    mapping(uint => Object) public o; // off\r\n    \r\n    struct Subject {\r\n        string name;\r\n        address s_address;\r\n    }\r\n    mapping(address => Subject) public s; // off\r\n    \r\n    enum Action {read, write, both}\r\n    enum Permission {allow, deny}\r\n    \r\n    // AddPolicy (s.EOA, r, action, permission, expiration_time)\r\n    struct Policy {\r\n        address s_address;\r\n        string object_name;\r\n        string resource_name;\r\n        Action action;\r\n        Permission permission;\r\n        uint expiration_time;\r\n    }\r\n    Policy[] public p;\r\n\r\n    event RemarksEvent(string message);\r\n    event AddSubjectEvent(address new_s_address, string new_s_name);\r\n    event RemoveSubjectEvent(address s_address);\r\n    \r\n    constructor() public {\r\n        is_activate = true;\r\n        owner = msg.sender;\r\n        message = \"Contract Creation\";\r\n        emit RemarksEvent(message);\r\n        AddSubject(owner, \"owner\");\r\n        //SetResource();\r\n        SetObject();\r\n    }\r\n    \r\n    /*\r\n    function SetResource() private{\r\n        r.push(Resource({\r\n            object_name: \"Obj_1\",\r\n            resource_name: \"Rec_1\" \r\n        }));\r\n    }\r\n    */\r\n    \r\n    function SetObject() private {\r\n        o[0].object_name = \"Obj_0\";\r\n        o[0].resource_name.push(\"Rec_00\");\r\n        o[0].resource_name.push(\"Rec_01\");\r\n        o[1].object_name = \"Obj_1\";\r\n        o[1].resource_name.push(\"Rec_10\");\r\n        o[1].resource_name.push(\"Rec_11\");\r\n    }\r\n    \r\n    // AddSubject (s.EOA, s.Infos)\r\n    function AddSubject(address new_s_address, string memory new_s_name) public {\r\n        require(msg.sender == owner, \"Only owner can add new Subjects!\");\r\n        require(keccak256(bytes(s[new_s_address].name))==keccak256(\"\"), \"Subject already exist!\");\r\n        s[new_s_address].name = new_s_name;\r\n        s[new_s_address].s_address = new_s_address;\r\n        emit AddSubjectEvent(new_s_address, new_s_name);\r\n    }\r\n    \r\n    // RemoveSubject (s.EOA)\r\n    function RemoveSubject(address s_address) public {\r\n        require(msg.sender == owner, \"Only owner can remove Subjects!\");\r\n        require(keccak256(bytes(s[s_address].name))!=keccak256(\"\"), \"Subject not exist!\");\r\n        delete(s[s_address]);\r\n        emit RemoveSubjectEvent(s_address);\r\n    }\r\n    \r\n    // ChangeStatus(bool status)\r\n    function ChangeStatus(bool status) public {\r\n        require(msg.sender == owner, \"Only owner can Change Status!\");\r\n        is_activate = status;\r\n    }\r\n    \r\n    // AddPolicy (s.EOA, r, action, permission, expiration_time)\r\n    // no event\r\n    function AddPolicy(address s_address, uint[2] memory r, Action action, Permission permission, uint expiration_time) public {\r\n        require(msg.sender == owner, \"Only owner can Add Policies!\");\r\n        require(is_activate == true, \"Contract not activate\");\r\n        require(keccak256(bytes(s[s_address].name))!=keccak256(\"\"), \"Subject not authenticated!\");\r\n        \r\n        p.push(Policy({\r\n            s_address: s_address,\r\n            object_name: o[r[0]].object_name,\r\n            resource_name: o[r[0]].resource_name[r[1]],\r\n            action: action,\r\n            permission: permission,\r\n            expiration_time: expiration_time\r\n        }));\r\n        /*\r\n        0x5B38Da6a701c568545dCfcB03FcB875f56beddC4\r\n        [0,0]\r\n        0\r\n        1\r\n        2\r\n        */\r\n    }\r\n\r\n    // UpdatePolicy (s.EOA, r, action, permission, expiration_time)\r\n    // no event\r\n    function UpdatePolicy(address s_address, uint[2] memory r, Action action, Permission permission, uint expiration_time) public {\r\n        require(msg.sender == owner, \"Only owner can Update Policies!\");\r\n        require(is_activate == true, \"Contract not activate\");\r\n        require(keccak256(bytes(s[s_address].name))!=keccak256(\"\"), \"Subject not authenticated!\");\r\n        for(uint i=0; i<p.length; i++){\r\n            if(\r\n                (p[i].s_address==s_address) &&\r\n                (keccak256(bytes(p[i].object_name)) == keccak256(bytes(o[r[0]].object_name))) &&\r\n                (keccak256(bytes(p[i].resource_name)) == keccak256(bytes(o[r[0]].resource_name[r[1]]))) &&\r\n                (p[i].action == action)\r\n            ){\r\n                p[i].permission = permission;\r\n                p[i].expiration_time = expiration_time;\r\n            }\r\n        }\r\n    }\r\n    \r\n    // DeletePolicy (s.EOA, r, action, permission, expiration_time)\r\n    // not event\r\n    function DeletePolicy(address s_address, uint[2] memory r, Action action, Permission permission, uint expiration_time) public {\r\n        require(msg.sender == owner, \"Only owner can Delete Policies!\");\r\n        require(is_activate == true, \"Contract not activate\");\r\n        require(keccak256(bytes(s[s_address].name))!=keccak256(\"\"), \"Subject not authenticated!\");\r\n        \r\n        for(uint i=0; i<p.length; i++){\r\n            if(\r\n                (p[i].s_address==s_address) &&\r\n                (keccak256(bytes(p[i].object_name)) == keccak256(bytes(o[r[0]].object_name))) &&\r\n                (keccak256(bytes(p[i].resource_name)) == keccak256(bytes(o[r[0]].resource_name[r[1]]))) &&\r\n                (p[i].action==action) && \r\n                (p[i].permission==permission) &&\r\n                (p[i].expiration_time==expiration_time)\r\n            ){\r\n                delete(p[i]);\r\n                //p.length--;\r\n            }\r\n        }\r\n    }\r\n    \r\n    // CheckAccess (s.EOA, r, action, permission, expiration_time)\r\n    function CheckAccess(address s_address, uint[2] memory r, Action action, Permission permission, uint expiration_time) public returns(bool) {\r\n        require(is_activate == true, \"Contract not activate\");\r\n        require(s[s_address].s_address == s_address, \"Subject not authenticated!\");\r\n        \r\n        for(uint i=0; i<p.length; i++){\r\n            if(\r\n                (p[i].s_address==s_address) &&\r\n                (keccak256(bytes(p[i].object_name)) == keccak256(bytes(o[r[0]].object_name))) &&\r\n                (keccak256(bytes(p[i].resource_name)) == keccak256(bytes(o[r[0]].resource_name[r[1]]))) &&\r\n                (p[i].action==action) && \r\n                (p[i].permission==permission) &&\r\n                (p[i].expiration_time==expiration_time)\r\n            ){\r\n                message = \"Requests are passed!\";\r\n                emit RemarksEvent(message);\r\n                return true;\r\n            }\r\n        }\r\n        message = \"Requests are blocked!\";\r\n        emit RemarksEvent(message);\r\n        return false;\r\n    }\r\n    \r\n    \r\n    \r\n    \r\n    \r\n    function return_contract_name() public pure returns (string memory){\r\n        return \"myAMI\";\r\n    }\r\n}\r\n",
  "sourcePath": "/home/wolff/Desktop/PrivataBlockchainPublicIP3/Truffle_SmartContract/test/contracts/myAMI.sol",
  "compiler": {
    "name": "solc",
    "version": "0.5.16+commit.9c3226ce.Emscripten.clang"
  },
  "schemaVersion": "3.3.3",
  "updatedAt": "2021-02-01T11:20:12.718Z",
  "networkType": "ethereum",
  "devdoc": {
    "details": "Implements voting process along with vote delegation",
    "methods": {},
    "title": "Ballot"
  },
  "userdoc": {
    "methods": {}
  }
}